:020000040800F2
:1000000000000320310500084D2100085B21000895
:1000100061210008672100086D2100080000000030
:100020000000000000000000000000007321000834
:1000300081210008000000008F2100089D21000898
:1000400081050008810500088105000807220008D5
:100050008105000881050008810500088105000868
:100060008105000881050008F921000881050008C4
:100070008105000881050008A92100088105000804
:100080008105000881050008810500088105000838
:100090008105000881050008810500088105000828
:1000A0008105000881050008810500088105000818
:1000B0008105000881050008810500088105000808
:1000C00081050008810500088105000881050008F8
:1000D000BD210008D1210008810500088105000824
:1000E00081050008810500088105000881050008D8
:1000F0001F2200081322000881050008810500085E
:1001000081050008810500088105000881050008B7
:1001100081050008810500088105000881050008A7
:100120008105000881050008E52100088105000817
:0C01300081050008810500088105000819
:1001400010B5054C237833B9044B13B10448AFF311
:1001500000800123237010BD2C020020000000004D
:100160007CC1000808B5034B1BB103490348AFF33A
:10017000008008BD00000000300200207CC10008A3
:10018000034613F8012B002AFBD1181A01387047D7
:1001900001F0FF01102A2BDB10F0070F08D010F838
:1001A000013B013A8B422DD010F0070F42B3F6D13C
:1001B000F0B441EA012141EA014122F007047FF055
:1001C00000070023F0E80256083C85EA010586EAAC
:1001D000010685FA47F5A3FA87F586FA47F6A5FAE8
:1001E00087F68EB9EED1F0BC01F0FF0102F00702F4
:1001F00032B110F8013B013A83EA010313B1F8D19F
:100200000020704701387047002D06BF354603387F
:10021000073815F0010F07D1013015F4807F02BFB8
:10022000013015F4C03F0130F0BC0138704700BF09
:1002300053B94AB9002908BF00281CBF4FF0FF314D
:100240004FF0FF3000F072B9ADF1080C6DE904CE4B
:1002500000F006F8DDF804E0DDE9022304B07047A1
:100260002DE9F047089E04468846002B4BD18A4270
:10027000154667D9B2FA82F24AB1C2F1200701FAF3
:1002800002F320FA07F7954047EA030894404FEA43
:10029000154E230CB8FBFEF71FFA85FC0EFB1788E2
:1002A00043EA084307FB0CF1994209D9EB1807F11F
:1002B000FF3080F01B81994240F21881023F2B44AD
:1002C0005B1AA4B2B3FBFEF00EFB103344EA034406
:1002D00000FB0CFCA44509D92C1900F1FF3380F078
:1002E0000781A44540F2048102382C4440EA0740CB
:1002F000A4EB0C0400271EB1D4400023C6E9004340
:100300003946BDE8F0878B4209D9002E00F0EB801A
:100310000027C6E9000138463946BDE8F087B3FA40
:1003200083F7002F47D18B4202D3824200F2FA803A
:10033000841A61EB030301209846002EE0D0C6E941
:100340000048DDE702B9FFDEB2FA82F2002A40F08F
:100350008F80491B4FEA154E1FFA85F80127B1FB24
:10036000FEFC230C0EFB1C1143EA014308FB0CF1BD
:10037000994207D9EB180CF1FF3002D2994200F2F2
:10038000CD808446591AA3B2B1FBFEF00EFB1014C7
:1003900043EA044408FB00F8A04507D92C1900F1F2
:1003A000FF3302D2A04500F2B6801846A4EB080441
:1003B00040EA0C409FE7C7F1200CBB4022FA0CFE3C
:1003C0004EEA030E01FA07F420FA0CF521FA0CF3B9
:1003D0004FEA1E482543B3FBF8F92C0C08FB1933F0
:1003E0001FFA8EFA44EA034309FB0AF49C4202FA1C
:1003F00007F200FA07F10BD91EEB030309F1FF30F6
:1004000080F087809C4240F28480A9F10209734405
:100410001B1BADB2B3FBF8F008FB103345EA0344F5
:1004200000FB0AFAA24508D91EEB040400F1FF33D1
:100430006BD2A24569D90238744440EA0940A0FB56
:100440000289A4EB0A044C45C2464B4654D351D012
:10045000002E69D0B1EB0A0564EB030404FA0CFC2E
:10046000FD40FC404CEA0505C6E90054002747E77B
:10047000C2F1200320FA03F7954001FA02F021FAB5
:1004800003F34FEA154E3843010CB3FBFEF71FFA96
:1004900085F80EFB173341EA034107FB08F38B4253
:1004A00004FA02F407D9691807F1FF3C2FD28B42F6
:1004B0002DD9023F2944CB1A81B2B3FBFEF00EFBCB
:1004C000103341EA034100FB08F38B4207D9691856
:1004D00000F1FF3C17D28B4215D902382944C91AC2
:1004E00040EA07473BE73746304609E70746E7E675
:1004F0001846FBE64145ABD2B8EB020A69EB0E02A7
:1005000001381346A4E76046E9E7184695E76746D1
:10051000D1E781467CE702382C4447E7ACF1020C76
:100520002B442FE7384608E73746E9E6704700BF17
:100530000D4885460D480E490E4A002302E0D45866
:10054000C4500433C4188C42F9D30B4A0B4C00231B
:1005500001E013600432A242FBD303F0D9FA0AF09F
:1005600029FE01F087FAFEE70000032004000020C6
:100570009C0000202CC900082C020020C815002077
:10058000FEE780B586B000AFF860B9607A600023FE
:100590007B610AE0AFF300800146BB685A1CBA6079
:1005A000CAB21A707B6901337B617A697B689A42AF
:1005B000F0DB7B6818461837BD4680BD80B584B037
:1005C00000AF7860114B1B68002B02D10F4B104A13
:1005D0001A600E4B1B68FB600C4B1A687B68134457
:1005E0006A46934207D90AF0DFFD02460C231360E6
:1005F0004FF0FF3306E0054B1A687B681344034A4B
:100600001360FB6818461037BD4680BD4C020020C1
:10061000C815002080B483B000AF78604FF0FF337E
:1006200018460C37BD465DF8047B704780B483B034
:1006300000AF786039603B684FF400525A60002385
:1006400018460C37BD465DF8047B704780B483B014
:1006500000AF7860012318460C37BD465DF8047B77
:10066000704780B485B000AFF860B9607A6000234D
:1006700018461437BD465DF8047B704780B483B0DC
:1006800000AF7860064BD3F8902005497B68134390
:10069000C1F8903000BF0C37BD465DF8047B704751
:1006A0000008005880B483B000AF7860064BD3F8E0
:1006B000D02005497B681343C1F8D03000BF0C3708
:1006C000BD465DF8047B70470008005880B483B0D5
:1006D00000AF78604FF0B0439B6823F400424FF0C6
:1006E000B0417B6813438B6000BF0C37BD465DF89B
:1006F000047B704780B500AF00F024F80849002063
:1007000000F020FD00F00EF8012101200AF022FB8C
:1007100000F073F800F081F800F01EF800BF80BD13
:100720002415002080B500AF03F044FB4FF4803067
:10073000FFF7A4FF4FF48030FFF7B4FF08F0F6FF97
:1007400000BF80BD80B500AF4FF40040FFF7BEFF93
:100750000AF0EEFA00BF80BD80B588B000AF0AF0A5
:1007600039F9114A002140200AF0FEFB0F4B3B6093
:100770000F4B7B603B4619460E4809F037FA0E4B8B
:10078000BB600E4BFB600E4B3B6140F23C537B6108
:1007900007F1080318460AF025FA0AF015F900BF18
:1007A0002037BD4680BD00BF259C0008F006032011
:1007B000C5070008DB07000808090320FC07032021
:1007C000B401032080B483B000AF0346FB7100BFC7
:1007D0000C37BD465DF8047B704780B582B000AF32
:1007E00078600AF06FFA01F045FD002101200AF05F
:1007F000B1FA00BF0837BD4680BD80B500AF00200C
:1008000003F0A6F8012003F0A3F8022003F0A0F8FB
:10081000012003F0D7F800BF80BD80B500AF0121F3
:10082000002003F003F900BF80BD80B400AF00BF1B
:10083000BD465DF8047B704780B582B000AF78603C
:1008400039604FF0FF300AF0B3FA00BF0837BD46F9
:1008500080BD80B582B000AF7860002140200AF0F2
:10086000A3FB00BF0837BD4680BD80B582B000AF96
:10087000786002200AF0FEFB00BF0837BD4680BD4D
:1008800080B582B000AF786002200AF011FC00BF92
:100890000837BD4680BD80B500AF01F085F900BFC7
:1008A00080BD80B584B000AFF8600B467A607B8174
:1008B0007A897B68F968002000F0B8FE00BF103725
:1008C000BD4680BD80B582B000AF0346FB80FB888B
:1008D000022B0AD0102B02D0012B03D008E001F02C
:1008E00001FF05E001F00EFF02E001F012FF00BF82
:1008F00000BF0837BD4680BD80B483B000AF7860CC
:10090000064BD3F8802005497B681343C1F880303B
:1009100000BF0C37BD465DF8047B704700080058E7
:1009200080B483B000AF7860054B1A6804497B68D7
:1009300013430B6000BF0C37BD465DF8047B704766
:100940000008005880B483B000AF0D4B9B6A9BB287
:100950007B600B4B9B6A9BB23B6005E03B687B6016
:10096000074B9B6A9BB23B607A683B689A42F5D121
:100970003B6818460C37BD465DF8047B704700BFE6
:100980000028004080B485B000AF03460A46FB71E2
:100990001346BB71BA791D4913465B001344DB0053
:1009A0000B4415331B78FB73FB7B062B09D0FA7BBA
:1009B000164913465B001344DB000B441433FA79E9
:1009C0001A70FA79114913465B001344DB000B449B
:1009D0001533FA7B1A70FA790C4913465B001344FD
:1009E000DB000B441433BA791A70BA7907491346FD
:1009F0005B001344DB000B441533FA791A7000BF17
:100A00001437BD465DF8047B704700BF9C00002092
:100A100080B485B000AF03460A46FB711346BB7134
:100A2000294B1B78DBB2BA799A4232D0BA7927497E
:100A300013465B001344DB000B4414331B78FB7339
:100A4000FA7B224913465B001344DB000B44153349
:100A5000FA791A70FA791D4913465B001344DB00DA
:100A60000B441533BA791A70FA79184913465B00AA
:100A70001344DB000B441433FA7B1A70BA79134920
:100A800013465B001344DB000B441433FA791A70ED
:100A900014E0FA790D4913465B001344DB000B4464
:100AA0001533BA791A70BA79084913465B001344B2
:100AB000DB000B441433FA791A7000BF1437BD46BB
:100AC0005DF8047B704700BF2C0100209C000020D3
:100AD00080B584B000AF0346FB714E4B1B78DBB290
:100AE000062B18D14B4B1B78DAB24B4B1A70494A84
:100AF000FB791370FA79494913465B001344DB0014
:100B00000B44153306221A70454B4FF0FF321A6022
:100B10000023FB8178E000F009F90346FB81FA79B4
:100B20003E4913465B001344DB000B44083319684D
:100B3000FB89FA791944394813465B001344DB00FA
:100B4000034408331960FA79344913465B001344AF
:100B5000DB000B4408331B68BB602E4B1B78DBB2F9
:100B600019462E4A0B465B000B44DB001344083346
:100B70001B68BA689A4237D3264B1B787B737A7B03
:100B8000264913465B001344DB000B4415331B78E6
:100B90003B7313E07A7B214913465B001344DB006F
:100BA0000B4415331B787B737A7B1C4913465B001F
:100BB0001344DB000B4415331B783B733B7B062B44
:100BC0000BD03A7B154913465B001344DB000B4402
:100BD00008331B68BA689A42DCD27A7BFB791146EB
:100BE0001846FFF7CFFE0FE00A4B1B78DAB2FB790D
:100BF00011461846FFF70CFF064B1B78DAB2064B7E
:100C00001A70044AFB791370FB8918461037BD46E9
:100C100080BD00BF2C0100202D0100209C00002081
:100C20003001002080B485B000AF03460A46FB7156
:100C30001346BB71394B1B78DBB2FA799A4211D15A
:100C4000364B1B78DAB2364B1A70FA7935491346AF
:100C50005B001344DB000B4415331B78DAB22F4BD7
:100C60001A703EE0FA792F4913465B001344DB000B
:100C70000B4414331B78FB73FA792A4913465B0043
:100C80001344DB000B4415331B78BB73F979FA7BF3
:100C900024480B465B000B44DB00034415331B78F0
:100CA000D8B2204913465B001344DB000B441533D4
:100CB00002461A70BB7B062B13D0F979BA7B194810
:100CC0000B465B000B44DB00034414331B78D8B2A3
:100CD000144913465B001344DB000B4414330246F3
:100CE0001A70FA790F4913465B001344DB000B447A
:100CF0000C3301221A70094B1B78DBB2062B07D18B
:100D0000BB79002B04D1084B4FF0FF321A6000BFB3
:100D100000BF1437BD465DF8047B70472C010020EE
:100D20002D0100209C0000203001002080B582B001
:100D300000AF1A4B1B68B3F1FF3F26D0FFF702FE4E
:100D40007860164B1B687A689A4205D8134B1A686C
:100D50007B68D31A7B600AE0114B1B881A467B68BC
:100D6000D31A3B600D4B1B683A6813447B600D4BF4
:100D70001B781A467B6802FB03F37B600A4B1B78E7
:100D80001A467B68D3407B6001E000237B607B6870
:100D90009BB218460837BD4680BD00BF3001002019
:100DA00056020020550200205402002080B582B077
:100DB00000AF0346FB80FB88002B08D1FFF7C2FD84
:100DC0000246244B1A60032003F046F93EE0FB88FC
:100DD000012B03D8204B1B78012B02D0FB88013B51
:100DE000FB8000BF1D4B1B681B68DB6803F004031E
:100DF000002BF7D0194B1B681B68DB68DAB2174B66
:100E00001B681B6862F49062DA60154B4FF4002295
:100E1000DA60032003F02EF9124B5B691B0C1B04F4
:100E2000FA88104913434B61FFF78CFD0246094BCA
:100E30001A600A4B1B681B689A68084B1B681B6882
:100E400042F480629A60AFF3008000BF0837BD466D
:100E500080BD00BF3001002054020020500200205D
:100E6000000800580028004080B584B000AF474B10
:100E70009B6803F48063B3F5806F08D100BF444BD7
:100E80001B681B68DB6803F00403002BF7D1404BA1
:100E90001B681B689A683E4B1B681B6822F48062C3
:100EA0009A603C4B1B78FB73FA7B3B4913465B0013
:100EB0001344DB000B4408331B68BB60FFF736FFAD
:100EC0000346FB80FB88BA689A4205D20023BB81A7
:100ED000324B01221A704DE0FB88314A128892B2DF
:100EE00013441A46BB68934206D92D4B1B88BB811D
:100EF0002A4B00221A703DE0BB689AB2FB88D31AD5
:100F0000BB81264B01221A7034E0FA7B224913463A
:100F10005B001344DB000B4408331A68FB889A42D9
:100F20000AD2FA7B1C4913465B001344DB000B44D6
:100F3000083300221A6013E0FA7B174913465B005E
:100F40001344DB000B4408331968FB88FA7BC91A89
:100F5000114813465B001344DB0003440833196057
:100F6000FA7B0D4913465B001344DB000B44153339
:100F70001B78FB73FB7B062BC7D1BB891846FFF799
:100F800015FF00BF1037BD4680BD00BF00280040E0
:100F9000500200202C0100209C0000203401002081
:100FA0005802002080B58AB000AFEFF310837B6158
:100FB0007B697B6272B65E4B1B681B68CA225A62F1
:100FC0005B4B1B681B6853225A62594B1B681B689A
:100FD0009A68574B1B681B6822F480629A60554BD5
:100FE0001B7887F8233097F82320534913465B007A
:100FF0001344DB000B440C331B78DBB2022B70D1A3
:1010000097F823204C4913465B001344DB000B4444
:101010001B68FB6197F82320474913465B00134484
:10102000DB000B4410331B68BB61444B1B78DBB205
:10103000002B4ED097F823203F4913465B00134402
:10104000DB000B440D331B78DBB2012B25D197F865
:10105000233001211846FFF7E5FD7B6A3B613B69C0
:1010600083F3108897F82320334913465B00134419
:10107000DB000B4404331A6897F8233011461846F6
:1010800000F040FA2A4B1B681B68CA225A62284BA0
:101090001B681B6853225A6213E07B6AFB60FB6883
:1010A00083F3108897F82330184600F0A1F9204BFD
:1010B0001B681B68CA225A621D4B1B681B6853229F
:1010C0005A6297F82330FA691946B86900F0A0FA15
:1010D00024E0FFF7C9FE7B6ABB60BB6883F310881E
:1010E0001CE000BF124B1B681B68DB6803F00403A5
:1010F000002BF7D00E4B1B681B68DB68DAB20C4B79
:101100001B681B6862F49062DA600D4B4FF400229A
:10111000DA607B6A7B607B6883F31088044B1B6812
:101120001B68FF225A6200BF2837BD4680BD00BF42
:10113000500200202C0100209C00002034010020DF
:101140000008005880B586B000AF03463960FB71D7
:10115000614A3B681360604B1B681B68CA225A6275
:101160005D4B1B681B6853225A625C4B9B685B4A51
:1011700043F020039360594B9B68DBB203F00703F5
:10118000DBB2C3F10403DAB2554B1A70534B1B693F
:1011900003F4FE034FF4FE02FA60FA6892FAA2F238
:1011A000BA60BA68B2FA82F2D2B2D340DBB201338B
:1011B000DAB24C4B1A70494B1B699BB2C3F30E0356
:1011C0009BB201339AB2484B1A80474B1B88013BB4
:1011D000444A127802FB03F3A3F5A073404A127845
:1011E000D3403B613B694FF6FE72934204D93F4BBB
:1011F0004FF6FF721A8003E03B699AB23B4B1A80AC
:101200004FF40020FFF78CFB4FF40020FFF774FB36
:10121000FB79002B43D1364B01221A70354B4FF02E
:10122000FF321A600023FB750CE0FA7D3249134649
:101230005B001344DB000B440C3300221A70FB7D6F
:101240000133FB75FB7D052BEFD92C4B06221A7061
:10125000214B1B681B689A681F4B1B681B6822F494
:1012600080629A601C4B1B681B68DB68DAB21A4B01
:101270001B681B6862F49062DA60214B4FF4002215
:10128000DA60032002F0F6FE134B1B681B689A68B5
:10129000114B1B681B6842F480429A600AE00E4BB7
:1012A0001B681B68DB6803F48063002B02D00320FB
:1012B00002F0D2FE084B1B681B68FF225A62002214
:1012C0000321032002F092FE032002F0A9FE00BFDA
:1012D0001837BD4680BD00BF5002002000280040E6
:1012E000540200205502002056020020580200201F
:1012F00034010020300100209C0000202C0100203F
:101300000008005880B48BB000AFF860B9603B6053
:101310001346FB71002387F82630EFF31083FB613F
:10132000FB693B6272B604E097F82630013387F818
:10133000263097F82630052B0CD897F826202B4915
:1013400013465B001344DB000B440C331B78DBB209
:10135000002BE9D197F82630062B37D097F82620B6
:10136000224913465B001344DB000B440C3301227B
:101370001A703B6ABB61BB6983F3108897F826201B
:101380001A4913465B001344DB000B441033FA6820
:101390001A6097F82620154913465B001344DB00BA
:1013A0000B440D33FA791A7097F826200F4913462B
:1013B0005B001344DB000B443A681A60BB6897F883
:1013C00026201A70002387F8273007E03B6A7B61EC
:1013D0007B6983F31088012387F8273097F827303B
:1013E00018462C37BD465DF8047B70479C000020F2
:1013F00080B586B000AF0346FB71EFF31083FB604E
:10140000FB687B6172B6032002F018FE374B1B6845
:101410001B68CA225A62354B1B681B6853225A62EA
:10142000FA79334913465B001344DB000B440C3359
:101430001B78DBB2022B48D1FB7900211846FFF75D
:10144000F1FB2C4B1B78FB74FB7C062B35D12A4B14
:101450009B6803F48063B3F5806F08D100BF234B12
:101460001B681B68DB6803F00403002BF7D11F4BDC
:101470001B681B689A681D4B1B681B6822F48062FE
:101480009A6000BF194B1B681B68DB6803F00403FC
:10149000002BF7D0154B1B681B68DB68DAB2134BC7
:1014A0001B681B6862F49062DA60144B4FF40022F0
:1014B000DA60032002F0DEFD07E0114B1B78DBB29F
:1014C000FA7C9A4201D0FFF7CFFC084B1B681B68DF
:1014D000FF225A62032002F0A3FD7B69BB60BB6858
:1014E00083F3108800BF1837BD4680BD500200202E
:1014F0009C0000202C01002000280040000800581B
:101500002D01002080B586B000AF03463960FB7125
:10151000FA793B4913465B001344DB000B440C3360
:101520001B78DBB2022B03D1FB791846FFF760FF73
:10153000EFF31083FB60FB687B6172B6032002F05F
:101540007DFD304B1B681B68CA225A622D4B1B68FD
:101550001B6853225A62FA79294913465B001344E7
:10156000DB000B440C3302221A70FA79244913462B
:101570005B001344DB000B4408333A681A60FA79C5
:101580001F4913465B001344DB000B4404333A68E5
:101590001A60FB791846FFF79BFA03467B821A4BC9
:1015A0001B787B74194B1B78DBB27A7C9A4202D091
:1015B000FFF75AFC13E0FA79114913465B00134414
:1015C000DB000B44083319687B8AFA79C91A0C4886
:1015D00013465B001344DB00034408331960094BD6
:1015E0001B681B68FF225A62032002F019FD7B6909
:1015F000BB60BB6883F3108800BF1837BD4680BD51
:101600009C000020500200202C0100202D01002011
:1016100080B584B000AFF8600B467A60FB727B68DF
:10162000984700BF1037BD4680BD000080B586B02A
:1016300000AFB9607B600346FB731346BB81002398
:10164000FB750023BB75FB7B002B00D00EE0174A17
:101650007B681360164B174A1A60BB891A46B96833
:10166000134805F0EDF80346FB7500BFFB7D032B27
:1016700016D801A252F823F0891600088F16000828
:10168000951600089B1600080023BB7509E001238E
:10169000BB7506E00223BB7503E00323BB7500E0C6
:1016A00000BFBB7D18461837BD4680BDA81300207B
:1016B000981400200038014080B582B000AF7860F7
:1016C0007B681B681A46084B9A4200D007E0074B1C
:1016D0001B68002B02D0054B1B68984700BF00BF5A
:1016E0000837BD4680BD00BF00380140A813002068
:1016F00080B483B000AF7860074BD3F880207B685C
:10170000DB4305491340C1F8803000BF0C37BD46AC
:101710005DF8047B704700BF0008005880B483B0B8
:1017200000AF7860074BD3F890207B68DB43054916
:101730001340C1F8903000BF0C37BD465DF8047B04
:10174000704700BF0008005880B483B000AF7860D5
:101750004FF0B0430A4AC3F89C204FF0B043D3F88F
:101760009C3023F47C527B681B024FF0B041134342
:10177000C1F89C3000BF0C37BD465DF8047B704754
:10178000FECAFECA80B400AF4FF0B043D3F8983021
:101790004FF0B04243F00103C2F8983000BFBD469D
:1017A0005DF8047B704780B400AF4FF0B043D3F8CE
:1017B000983003F00203022B01D1012300E0002343
:1017C0001846BD465DF8047B704780B400AF4FF00B
:1017D000B043D3F890304FF0B04243F00103C2F869
:1017E000903000BFBD465DF8047B704780B400AF09
:1017F0004FF0B043D3F8903003F00203022B01D135
:10180000012300E000231846BD465DF8047B7047C5
:1018100080B400AF4FF0B043D3F894304FF0B042F3
:1018200023F00103C2F8943000BFBD465DF8047B8D
:10183000704780B483B000AF78604FF0B043D3F806
:10184000943023F440424FF0B0417B681343C1F819
:10185000943000BF0C37BD465DF8047B704780B400
:1018600083B000AF78604FF0B043D3F8883023F0F6
:1018700040624FF0B0417B681343C1F8883000BF2D
:101880000C37BD465DF8047B704780B400AF4FF065
:10189000B043D3F890304FF0B04243F48033C2F8F5
:1018A000903000BFBD465DF8047B704780B400AF48
:1018B0004FF0B043D3F890304FF0B04223F4803370
:1018C000C2F8903000BFBD465DF8047B704780B41D
:1018D00000AF4FF0B043D3F8943003F08063B3F11E
:1018E000806F01D1012300E000231846BD465DF85A
:1018F000047B704780B400AF4FF0B043D3F894300E
:1019000003F08053B3F1805F01D1012300E0002395
:101910001846BD465DF8047B704780B485B000AFC3
:1019200078604FF0B0439A6C4FF0B0417B6813433E
:101930008B644FF0B0439A6C7B681340FB60FB688C
:1019400000BF1437BD465DF8047B704780B485B096
:1019500000AF78604FF0B043DA6C4FF0B0417B6875
:101960001343CB644FF0B043DA6C7B681340FB60E9
:10197000FB6800BF1437BD465DF8047B704780B438
:1019800085B000AF78604FF0B0431A6D4FF0B041B2
:101990007B6813430B654FF0B0431A6D7B681340AF
:1019A000FB60FB6800BF1437BD465DF8047B7047E1
:1019B00080B483B000AF786039607B685A683B6858
:1019C0001B041A437B685A6000BF0C37BD465DF8A4
:1019D000047B704780B483B000AF786039607B6867
:1019E0005A683B681A437B685A6000BF0C37BD4693
:1019F0005DF8047B704780B483B000AF78603960D5
:101A00007B685A693B681B041A437B685A6100BFB4
:101A10000C37BD465DF8047B704780B483B000AFDF
:101A2000786039607B685A693B681A437B685A6101
:101A300000BF0C37BD465DF8047B704780B483B0AF
:101A400000AF786039607B683A689A6000BF0C37F5
:101A5000BD465DF8047B704780B483B000AF78600A
:101A600039607B683A689A6100BF0C37BD465DF803
:101A7000047B704780B500AF02F052F900F06EF9B8
:101A800000F058F900F014F800F037F900F0A7F969
:101A900000F029F900F00AF900F0D4F800F0DAF8C3
:101AA000FEF728FE4FF0FF3009F082F9FAE7000058
:101AB00080B5AEB000AF07F1700348220021184690
:101AC00009F0A7FB07F1540300221A605A609A60DC
:101AD000DA601A615A619A613B1D50220021184652
:101AE00009F097FB2F4B1B6823F4C0632D4A43F486
:101AF000007313602B4B1B6803F4C0633B603B68AF
:101B00000B233B674FF480337B674FF48073FB6795
:101B10004023C7F880300523C7F884300023C7F876
:101B20009C3007F17003184603F0D6FA0346002BE9
:101B300001D000F075F96F237B650223BB6500239C
:101B4000FB6500233B6600237B660023BB66002306
:101B5000FB6607F154030121184603F01BFE034600
:101B6000002B01D000F05CF943F603037B600023F7
:101B7000FB6100233B624FF400737B644FF400432E
:101B8000BB640223FB6400233B653B1D184604F045
:101B90003CFA0346002B01D000F042F900BFB837F1
:101BA000BD4680BD0004005880B500AF234B244AD9
:101BB0001A60224B4FF4E1325A60204B00229A60A7
:101BC0001E4B0022DA601D4B00221A611B4B0C22B7
:101BD0005A611A4B00229A61184B4FF40042DA61A5
:101BE000164B00221A62154B00225A62134B002238
:101BF0009A62124804F0D3FD0346002B01D000F096
:101C00000FF900210D4806F03DFB0346002B01D0E3
:101C100000F006F90021094806F072FB0346002B8C
:101C200001D000F0FDF8054806F0F3FA0346002B5A
:101C300001D000F0F5F800BF80BD00BF981400206F
:101C40000038014080B400AF00BFBD465DF8047BA2
:101C50007047000080B500AF124B134A1A60114B59
:101C600000225A600F4B0F229A600E4B47F6FF720C
:101C7000DA600C4B00221A610A4B00229A61094B70
:101C80000022DA61074804F046FC0346002B01D02D
:101C900000F0C6F8044B9B68034A23F007039360E7
:101CA00000BF80BD241500200028004080B500AF93
:101CB0000420FFF732FE0220FFF72FFE0120FFF77E
:101CC0002CFE00220F210E2002F090F90E2002F0CF
:101CD000A7F900220F213A2002F088F93A2002F0F9
:101CE0009FF900BF80BD80B500AF0120FFF72EFE39
:101CF0000220FFF72BFE00BF80BD80B500AFFFF7CD
:101D000064FD00BFFFF772FD0346002BFAD04FF4CD
:101D10008040FFF78EFDFFF77BFDFFF733FD00BF2F
:101D2000FFF741FD0346002BFAD00020FFF797FD97
:101D300000BF80BD80B582B000AF002007F016FF65
:101D400078607B68002B05D07B689B791846FFF78D
:101D5000FBFC00BF00BF0837BD4680BD80B500AFAB
:101D600000F026F800F002F800BF80BD80B500AF9B
:101D70004FF48010FFF703FE3F210C48FFF75EFE93
:101D80003F210A48FFF768FE3F210848FFF710FE91
:101D90003F210648FFF72FFE3F210448FFF71AFEB8
:101DA0003F210248FFF739FE00BF80BD000C0058FC
:101DB00080B500AFFFF78BFD0346002B0DD0FFF77A
:101DC00099FD0346002B08D102F0D4FD02F0D2FDAC
:101DD000FFF75BFDFFF76AFD00BF00BF80BD80B568
:101DE00000AF4FF0FF30FFF783FC6FF05000FFF7BC
:101DF00095FC00BF80BD80B483B000AF7860002345
:101E000018460C37BD465DF8047B704780B483B03C
:101E100000AF786000BF0C37BD465DF8047B7047AB
:101E200080B400AF00BFBD465DF8047B704780B44E
:101E300083B000AF78604FF0B043D3F8903023F414
:101E400040724FF0B0417B681343C1F8903000BF3F
:101E50000C37BD465DF8047B704780B400AF4FF08F
:101E6000B043D3F890304FF0B04243F40043C2F88F
:101E7000903000BFBD465DF8047B704780B485B0EC
:101E800000AF78604FF0B043DA6C4FF0B0417B6840
:101E90001343CB644FF0B043DA6C7B681340FB60B4
:101EA000FB6800BF1437BD465DF8047B704780B403
:101EB00085B000AF78604FF0B0431A6D4FF0B0417D
:101EC0007B6813430B654FF0B0431A6D7B6813407A
:101ED000FB60FB6800BF1437BD465DF8047B7047AC
:101EE00080B485B000AF78604FF0B043DA6D4FF04A
:101EF000B0417B681343CB654FF0B043DA6D7B682C
:101F00001340FB60FB6800BF1437BD465DF8047BDF
:101F1000704780B485B000AF78604FF0B0431A6E60
:101F20004FF0B0417B6813430B664FF0B0431A6E1D
:101F30007B681340FB60FB6800BF1437BD465DF84B
:101F4000047B704780B500AF4FF40020FFF7AFFF70
:101F500000BF80BD80B588B000AF786007F10C038A
:101F600000221A605A609A60DA601A617B681B6806
:101F7000614A934259D10120FFF7B2FF0120FFF7D8
:101F80007DFF0C23FB6002233B6100237B61032365
:101F9000BB610823FB6107F10C0319464FF0904029
:101FA00002F048FB4023FB6002233B6100237B617E
:101FB0000023BB610823FB6107F10C0319464FF0B6
:101FC000904002F037FB4D4B4D4A1A604B4B1122AB
:101FD0005A604A4B10229A60484B0022DA60474B05
:101FE00080221A61454B00225A61444B00229A61BB
:101FF000424B0022DA61414B00221A623F4802F054
:1020000047F80346002B01D0FFF70AFF7B683B4AE5
:102010005A673A4A7B68936200220021252001F02A
:10202000E5FF252001F0FCFF61E07B681B68354A75
:1020300093425CD14FF48040FFF76BFF0120FFF724
:102040001DFF0220FFF71AFF4FF40063FB6002231D
:102050003B6100237B610023BB610723FB6107F128
:102060000C0319464FF0904002F0E4FAC023FB60E5
:1020700002233B6101237B610323BB610723FB61D7
:1020800007F10C031946204802F0D4FA1F4B204AEE
:102090001A601E4B0F225A601C4B10229A601B4B79
:1020A0000022DA60194B80221A61184B00225A6113
:1020B000164B00229A61154B0022DA61134B002265
:1020C0001A62124801F0E4FF0346002B01D0FFF72B
:1020D000A7FE7B680D4A5A670C4A7B689362002210
:1020E0000021242001F082FF242001F099FF00BF8D
:1020F0002037BD4680BD00BF00800040481500204D
:102100004400024000380140000400483814002018
:102110004404024080B582B000AF78607B681B68E1
:10212000094A93420CD102F025FC02F023FC4FF443
:102130008070FFF77CFEFFF790FE786804F0D9FA14
:1021400000BF0837BD4680BD0028004080B400AF06
:1021500000BFBD465DF8047B704780B400AFFEE76A
:1021600080B400AFFEE780B400AFFEE780B400AFFC
:10217000FEE780B400AF00BFBD465DF8047B70474A
:1021800080B400AF00BFBD465DF8047B704780B4EB
:1021900000AF00BFBD465DF8047B704780B500AF5F
:1021A00001F0DEFD00BF80BD80B500AF024802F047
:1021B000F1F800BF80BD00BF4815002080B500AF1A
:1021C000024804F0BDFB00BF80BD00BF9814002092
:1021D00080B500AF024804F0B3FB00BF80BD00BF74
:1021E000AC13002080B500AF024802F0D3F800BF66
:1021F00080BD00BF3814002080B500AF102002F071
:10220000A1FB00BF80BD80B500AFFEF7CBFE00BFD5
:1022100080BD80B500AF01F071FA00BF80BD80B510
:1022200000AF01F033FA00BF80BD000080B400AF02
:10223000034B1B681846BD465DF8047B704700BF22
:102240008075FF1F80B400AF034B1B68DBB21846DC
:10225000BD465DF8047B70478475FF1F80B400AFF6
:10226000034B1B681B0A1846BD465DF8047B70478C
:102270008475FF1FB0B58CB000AF1D4B3C461D46AA
:102280000FCD0FC40FCD0FC495E80F0007C4237006
:1022900000F046FA0121022008F05CFD154A0021F9
:1022A000202008F061FE3B46184607F087FC00F04E
:1022B0004DFA08F0D7FA104A0021012008F054FE28
:1022C0000E4A0021022008F04FFE0D4B002283F839
:1022D0009020202007F0CBF800F004FC094B0022EE
:1022E00009490020FFF70EF800BF3037BD46B0BDEA
:1022F000BCC1000859980008C12800081D29000821
:102300003801002099290008C9010020F0B597B0D4
:1023100006AF78607B680133BB63BB6B02337B63C2
:102320000023FB63BB6B1B783E2B00F0B480FF2BBC
:1023300003D0052B00F09180ADE1A84B01221A706B
:10234000BB6B02333B633B6B1B889BB240F2074283
:10235000934206D040F60202934222D0042B6FD063
:102360007AE03B6B02337B627B6A1B78022B72D173
:102370007B6A5B78002B6ED1002001F03DFB984812
:1023800008F0D8FF974B93F89230012B63D1954B0F
:1023900093F89030062B5ED00021022008F004FE56
:1023A00059E03B6B0233FB62002007F060F8FB6AE8
:1023B0009A788D4B1A70FB6AB3F803309AB28A4B45
:1023C0005A80FB6AB3F805309AB2874B9A80FB6A51
:1023D000B3F807309AB2844BDA80FB6AB3F809305D
:1023E0009AB2814B1A81FB6AB3F80B309AB27E4BDA
:1023F0005A817C4BD88C7C4B9C887B4BDD887A4BFC
:102400001E89794B5B89784A1278012104910392E5
:102410001022029210220192009333462A4621464E
:1024200007F09FF8034687F82B3097F82B30002BE6
:1024300002D0022001F0C6FA202007F018F80BE0C5
:10244000012001F0BFFA674B93F891300A2118463A
:10245000FFF758F800E000BF1DE17B6BB3F80130D7
:102460009AB2604BDB8C9A4240F014815D4B0022A3
:10247000DA845C4B002283F890205C4808F05AFF15
:10248000564B01221A70574BDA8C544B5A805348E2
:1024900000F06EFBFEE0BB6B02333B623B6A1B78D5
:1024A000012B02D0022B31D0F3E03B6A0133FB60F9
:1024B000FB68B3F801309AB24A4BDA84494B0622E2
:1024C00083F890204A4808F035FF444B00221A70E8
:1024D000444BDA8C414B5A80404800F049FB414B59
:1024E000DB8C184606F01BFC034687F82B3097F868
:1024F0002B30002B06D13F4808F01CFF3E4808F067
:1025000091FEC6E03D4808F08DFEC2E03B6A013313
:10251000FB61FB695B78FB76FB695B7ABB76FB69E9
:10252000093301337B610023FB63FB7E002B40F00A
:10253000AF80A8E0FB6B7A6913441B78FB74FB6BDC
:1025400001337A6913441B78BB74BB7C092B05DC0F
:10255000082B5BDA012B00F08A808FE0162B00F04D
:102560008880FF2B03D00A2B00F0858086E0FB7C5F
:10257000062B31D9FB6B02337A6913441B78012B8C
:102580002AD11F4808F0D6FEFB6B03337A69134447
:102590001B78832B00D020E01A4808F0CBFE114BAB
:1025A000012283F89220FB69DA78174B1A70FB69D5
:1025B0001A79154B5A70FB695A79134B9A70FB695B
:1025C0009A79114BDA70FB69DA790F4B1A71FB6952
:1025D0001A7A0D4B5A7100E000BF4FE0A815002099
:1025E000ECC1000838010020B41500201CC200080E
:1025F00044C2000868C200089CC20008CCC200089F
:102600000CC3000828C30008AC15002024497869D1
:1026100008F098FE0346002B06D12249786908F09D
:1026200091FE0346002B28D01F4808F083FE1F4B65
:10263000012283F89220FB69DA781D4B1A70FB693E
:102640001A791B4B5A70FB695A79194B9A70FB69BE
:102650009A79174BDA70FB69DA79154B1A71FB69B5
:102660001A7A134B5A71022006F050FA05E000BFA7
:1026700004E000BF02E000BF00E000BFFB7C0133CC
:10268000FA6B1344FB63BB7EFA6B9A42FFF652AFC0
:1026900000BF00E000BF012318464437BD46F0BD2F
:1026A0004CC3000854C300085CC300083801002074
:1026B000AC15002080B483B000AF0346FB80084B0C
:1026C000DB8CFA889A4203D1054B93F8903000E0F6
:1026D000002318460C37BD465DF8047B704700BFE9
:1026E0003801002080B500AF00F08AFD0346062BBC
:1026F00004D00021012008F057FC01E000F06AFA44
:1027000000BF80BD80B400AF00BFBD465DF8047B54
:10271000704780B400AF00BFBD465DF8047B7047D2
:1027200080B582B000AF064B3B60064B7B603B46FA
:102730001946054807F074F800BF0837BD4680BD4C
:1027400020000320AD2A0008752A0008F0B591B0DA
:1027500006AF0023BB8006F0DBFE00F025F93862EF
:102760003A6A0621002006F0B4FD4EF66E53FB6077
:10277000FFF75CFD0346BB6007F108031A4606211C
:102780002E2006F0A6FD494A1021182006F0A1FDD2
:10279000474A1021082006F09CFD1821012006F070
:1027A00008FE06F004FA0023FB77FB7F43F00403E6
:1027B000FB77FB7F002B1ED03E4BBB6107F116025F
:1027C000F87F07F11203019307F1140300931346F6
:1027D0000722002105F03AFFFC8ABD8AB869FDF79F
:1027E000CFFC0346DAB2BB690093134600222946A8
:1027F000204606F006FAF88A798A3B1D00930223E8
:10280000002206F0FEF92C4B00221A702A4B1B788E
:10281000184605F01BFE284B01225A70264B002259
:10282000DA70254B08225A75234B10229A75224BD9
:1028300001221A75204B214A9A611F4B01229A707E
:10284000002387F827300BE097F827301A4A134403
:1028500097F827201A7197F82730013387F8273027
:1028600097F827300F2BEFD9134B9D78124B5E78DA
:10287000114B5B7D104A927D0F49097D0E4880699E
:1028800000240494039002910192009300230022FB
:102890003146284605F02BFE074B9B78002B01D0D4
:1028A00005F05FFF00BF2C37BD46F0BD9CC100089E
:1028B000ACC100087CC300083801002007B2010049
:1028C00080B582B000AF124B93F89030062B1AD02F
:1028D000002001F077F8012300224FF448714FF4F3
:1028E000487005F0C8FF0346FB71FB79002B03D14C
:1028F000084808F097FC06E0022001F063F806485B
:1029000008F090FC00BF00BF0837BD4680BD00BF87
:102910003801002084C30008B4C3000880B58AB021
:1029200008AF1A4808F07EFC194B93F89030062B3C
:1029300028D010230693102305934FF4FA730493C1
:102940000023039350230293282301930023009331
:10295000104B00224FF448714FF4487006F00AF80B
:102960000346FB71FB79002B04D1094B042283F849
:10297000902007E0022001F025F8054B002283F8A3
:10298000902000BF00BF0837BD4680BDE4C30008EB
:1029900038010020AC15002080B500AF012001F007
:1029A0002BF800BF80BD000080B586B000AFFFF7F8
:1029B0003DFC38613B69B3F1FF3F23D0FFF74EFC8C
:1029C000B860FFF73FFC78603B69DAB2164B1A70CB
:1029D0003B691B0ADAB2144B5A703B691B0CDAB222
:1029E000114B9A707B68DAB20F4BDA70BB68DAB2BF
:1029F0000D4B1A71BB681B0ADAB20B4B5A710A4BAA
:102A00007B610BE0002007F0B1F8F860FB68002B59
:102A100002D0FB687B6101E0044B7B617B69184657
:102A20001837BD4680BD00BF5C02002094C100087D
:102A300080B582B000AF78600021202008F0B4FAA1
:102A400000BF0837BD4680BD80B582B000AF78605A
:102A5000012008F00FFB00BF0837BD4680BD80B5E0
:102A600082B000AF7860012008F022FB00BF083779
:102A7000BD4680BD80B584B000AF78607B68FB60E8
:102A8000FB685B680833184607F030FF0346FB72AB
:102A9000FB7A002B03D0FB6801221A7002E0FB686E
:102AA00000221A7000BF1037BD4680BD80B584B0CB
:102AB00000AF0346FB71FB79002B02D0012B06D03F
:102AC0000BE03F23FB60F86808F098FA05E03F232D
:102AD000FB60F86808F0B0FA00BF00BF1037BD46D1
:102AE00080BD000080B582B000AF0023FB711A4AA0
:102AF0000021042008F038FA184A0021082008F0C4
:102B000033FA174B00221A70154B0022DA80144B4F
:102B100000225A70124B00229A70114B0122DA7077
:102B20000F4B00221A710023FB7108E0FB790D4A5C
:102B30001B01134400221A70FB790133FB71FB79EE
:102B4000002BF3D0084807F0B7FE084808F0F2FB66
:102B500000BF0837BD4680BDD53200088D32000861
:102B6000DC010020CC010020E52B000810C4000887
:102B700080B584B000AF78607B681B78002B02D0F2
:102B8000012B05D01EE07B685A88104BDA8019E0D3
:102B90000023FB730D4B0022DA8005E0FB7B0C4A1F
:102BA0001B01134400221A70FB7B002B06D1FB7B18
:102BB000074A1B0113441B78002BEFD1002000F0C3
:102BC0001BFF00BF00BF1037BD4680BDDC010020E9
:102BD000CC01002080B500AF0021082008F0E4F906
:102BE00000BF80BD80B594B000AF7860002387F847
:102BF00045307B6801333B643B6C1B78FF2B00D076
:102C0000B4E23B6C0233FB63FB6B1B889BB2A3F605
:102C100004430C2B00F29E8201A252F823F000BF65
:102C2000572F0008553100080F2E000855310008B5
:102C30005531000855310008552C00085531000861
:102C4000553100085531000855310008833000081F
:102C5000FF300008FB6B02333B633B6B1A785B78F9
:102C60001B021343FB85002387F84D302EE097F8B5
:102C70004D30BC4A1B01134402331B881846FFF732
:102C800019FD034687F82D3097F84D30B54A1B01E2
:102C900013441B78062B14D197F82D30002B10D13C
:102CA00097F84D30AF4A1B01134400221A7097F871
:102CB0004D30AC4A1B01134402334FF6FF721A80A9
:102CC00010E097F84D30013387F84D3097F84D30CC
:102CD000002B07D197F84D30A24A1B0113441B78F3
:102CE000002BC4D197F84D30002B40F0358297F877
:102CF0004D309C4A1B0113440233FA8D1A803B6B02
:102D0000DA783B6B9B78B2FBF3F387F82C303B6BA4
:102D10009B78142B40F02082102387F84E3000233C
:102D200087F84F306CE097F84E303A6B13441B79BC
:102D30009AB297F84E30396B0B44043301331B7849
:102D40009BB21B029BB213437B857B8D48F2A01282
:102D5000934249D197F84D30824A1B011344023304
:102D60001B881946804808F05DFA97F84E30103BF2
:102D70003A6B13441B7999B297F84E30103B3A6B7B
:102D80001344043301331B789BB21B029AB297F8A9
:102D90004D300A4391B2734A1B01134404330A466F
:102DA0001A8097F84E300E3B3A6B13441B7999B258
:102DB00097F84E300E3B3A6B1344043301331B78C3
:102DC0009BB21B029AB297F84D300A4391B2654A02
:102DD0001B01134406330A461A8097F84D30614AA6
:102DE0001B01134408221A703B6B9A7897F84E30F7
:102DF000134487F84E3097F84F30013387F84F303F
:102E000097F84F2097F82C309A428CD3A4E1FB6BB3
:102E100002337B62002387F84B3004E097F84B3095
:102E2000013387F84B3097F84B30002B0BD197F8D4
:102E30004B304C4A1B01134402331A887B6A1B88AF
:102E40009BB29A42EAD197F84B30002B40F0868132
:102E5000112387F84C307B6A9B78152B40F07E81DC
:102E60007B6ADB78013BDAB27B6ADA706EE097F856
:102E70004C307A6A13441B799AB297F84C30796ACD
:102E80000B44043301331B789BB21B029BB21343E8
:102E90007B8497F84C300E3B7A6A13441B799AB2C4
:102EA00097F84C300E3B796A0B44043301331B789E
:102EB0009BB21B029BB213433B847B8CB3F5AC5F8C
:102EC0001AD197F84B30274A1B01134402331B8851
:102ED0001946264808F0A6F997F84B30214A1B01FD
:102EE000134409221A7097F84B301E4A1B011344F1
:102EF00008333A8C1A801EE07B8C4FF64262934274
:102F000019D197F84B30174A1B01134402331B8821
:102F10001946174808F086F997F84B30114A1B01FB
:102F200013440D221A7097F84B300E4A1B011344BC
:102F30000C333A8C1A807B6ADB78153BDAB27B6AF9
:102F4000DA7097F84C30153387F84C307B6ADB78B1
:102F5000002B8CD102E1FB6B0233FB61002387F86D
:102F600048300CE0CC0100202CC4000868C40008E4
:102F7000A0C4000897F84830013387F8483097F824
:102F80004830002B0BD197F848307B4A1B01134483
:102F900002331A88FB691B889BB29A42EAD197F8E0
:102FA0004830002B40F0DC80FB69DB789B08FB7627
:102FB000002387F84A30FB699B78012B40F0D080D2
:102FC000002387F8493056E097F84A30FA691344ED
:102FD0001B799AB297F84A30F9690B4404330133EC
:102FE0001B789BB21B029BB213433B8397F84A307A
:102FF0000233FA6913441B799AB297F84A300233C4
:10300000F9690B44043301331B789BB21B029BB25A
:103010001343FB82FB8A42F60212934221D197F8B6
:103020004830554A1B01134402331B881946534844
:1030300008F0F8F897F848304F4A1B0113441B7802
:103040000D2B0ED197F848304B4A1B0113440E3319
:103050003A8B1A8097F84830474A1B0113440E22D6
:103060001A7097F84A30043387F84A3097F8493095
:10307000013387F8493097F84920FB7E9A42A3D361
:103080006EE0FB6B02337B63002387F8473004E07C
:1030900097F84730013387F8473097F84730002BCF
:1030A0000BD197F84730344A1B01134402331A8876
:1030B0007B6B1B889BB29A42EAD197F84730002B72
:1030C00050D17B6B5B889AB297F847302A491B0135
:1030D0000B440C331B889A4244D17B6B1B79022B27
:1030E00040D102233B727B6B1B793B747B6B0533B6
:1030F000FB6007F10803184600F044F832E0FB6B70
:103100000233BB631E4808F015F90A2008F0A2F844
:10311000002387F8463004E097F84630013387F8FB
:10312000463097F84630002B0BD197F84630124ABC
:103130001B01134402331A88BB6B1B889BB29A4253
:10314000EAD197F84630002B0ED10021042007F079
:103150002BFF09E000BF08E000BF06E000BF04E06D
:1031600000BF02E000BF00E000BF00BF97F845309D
:1031700018465037BD4680BDCC010020E4C400088D
:103180002CC5000880B582B000AF78607B681B78E2
:10319000022B00D027E07B685B681A78144B5A70CA
:1031A000134B5B78012B00D01CE07B685B685A787E
:1031B0000F4B9A700E4B9B78002B09D1002000F02A
:1031C0001BFC0C4808F02EF80B4808F02BF808E020
:1031D0000A4808F027F8084808F024F8002000F012
:1031E000F1FB00BF00BF00BF0837BD4680BD00BF78
:1031F000DC01002058C5000898C500089CC50008DF
:1032000080B400AF034B1B781846BD465DF8047BC5
:10321000704700BFCC01002080B584B000AF0346EA
:103220003A60FB800B467B714223FB730023BB7328
:103230001BE0FB884FF64162934200D012E0BB7B5B
:10324000114A1B01134402331888BB7B0E4A1B0131
:103250001344083319883B68022205F0B1FF034686
:10326000FB7300BFBB7B0133BB73BB7B002B06D161
:10327000BB7B054A1B0113441B78002BD9D1FB7B78
:1032800018461037BD4680BDCC01002080B500AF88
:103290000C4807F0C7FF0C4807F0C4FF0B4B1B7925
:1032A000002B03D1094B01221A7102E0074B0022C7
:1032B0001A71074A00214FF64160FFF7ADFF00BFCA
:1032C00080BD00BFDCC5000898C50008DC010020F7
:1032D000DF01002080B582B000AF0123BB80002356
:1032E000FB71EAE0FB797D4A1B0113441B78073B25
:1032F000082B00F2DE8001A252F823F021330008EF
:10330000293300085B3300088F330008C3330008FB
:10331000D93300080F340008453400087F34000812
:103320006F4808F007F8C5E06E4808F003F8FB792D
:103330006A4A1B01134402331888FB79674A1B0150
:10334000134404331988FB79644A1B011344063380
:103350001B881A4605F038FDACE0634B01221A7059
:10336000FB795E4A1B01134402331888FB795B4AE0
:103370001B011344083319885B4B012205F008FE3A
:10338000FB79564A1B0113440A221A7092E0564BED
:1033900000221A70FB79514A1B011344023318882A
:1033A000FB794E4A1B011344083319884E4B012206
:1033B00005F0EEFDFB79494A1B0113440B221A70FC
:1033C00078E0FB79454A1B01134402331B88132123
:1033D000184605F0EFF96DE0444807F0ABFFFB79C4
:1033E0003E4A1B01134402331888FB793B4A1B01F8
:1033F000134408331988FB79384A1B0113440833F6
:103400001B8802339BB21A4605F050FD52E0384843
:1034100007F090FFFB79314A1B01134402331888EF
:10342000FB792E4A1B0113440C331988FB792B4A74
:103430001B0113440C331B8802339BB21A4605F060
:1034400035FD37E02B4807F075FFFB79234A1B0158
:10345000134402331888FB79204A1B0113440E33AE
:1034600019883B1D022205F01FFEFB791B4A1B0138
:10347000134406221A70022000F0BEFA1AE01E4819
:1034800007F058FFFB79154A1B01134402331888D3
:10349000FB79124A1B0113440E3319883B1D02228B
:1034A00005F002FEFB790D4A1B01134406221A7037
:1034B00000E000BFFB790133FB71FB79002B08D1E1
:1034C000FB79064A1B0113441B78002B7FF40AAFDB
:1034D00000BF00BF0837BD4680BD00BFCC01002043
:1034E0001CC6000834C60008040000205CC60008A2
:1034F00098C60008D8C60008FCC6000880B400AF13
:10350000054BDB68044A43F40043D36000BFBD466B
:103510005DF8047B704700BF0004005880B485B09C
:1035200000AF78604FF0B0431A6D4FF0B0417B6848
:1035300013430B654FF0B0431A6D7B681340FB607B
:10354000FB6800BF1437BD465DF8047B704780B44C
:1035500083B000AF78607B681B6843F480327B687F
:103560001A6000BF0C37BD465DF8047B704780B41D
:1035700083B000AF78607B681B6843F001027B6812
:103580001A6000BF0C37BD465DF8047B704780B4FD
:1035900083B000AF786039607B685A683B681B0471
:1035A000DB431A407B685A6000BF0C37BD465DF8AC
:1035B000047B704780B483B000AF786039607B686B
:1035C0005A683B681B041A437B685A6000BF0C377B
:1035D000BD465DF8047B704780B483B000AF78606F
:1035E00039607B685A683B68DB431A407B685A60E5
:1035F00000BF0C37BD465DF8047B704780B483B0D4
:1036000000AF786039607B683A689A6000BF0C3719
:10361000BD465DF8047B704780B483B000AF78602E
:1036200039603B681A047B689A6000BF0C37BD465E
:103630005DF8047B704780B483B000AF7860396078
:103640007B68DA683B6813403A689A4201D10123EB
:1036500000E0002318460C37BD465DF8047B704738
:1036600080B483B000AF786039607B68DA693B680A
:1036700013403A689A4201D1012300E00023184622
:103680000C37BD465DF8047B7047000080B500AF85
:1036900002211948FFF7E4FF0346002B09D0164B1F
:1036A0005B68DB4303F00203002B02D000F0DEF87E
:1036B0001FE001211048FFF7D3FF0346002B08D07D
:1036C0000D4B5B6803F00103002B02D100F092F870
:1036D0000FE008210848FFF7C3FF0346002B09D07D
:1036E000054B5B68DB4303F00803002B02D000F0BE
:1036F00009F900BF00BF80BD000C005880B500AFC5
:1037000002212248FFF797FF0346002B09D11F4BE8
:103710005B68DB4303F40033002B02D000F09AF81F
:1037200031E002211948FFF786FF0346002B09D13B
:10373000164B5B68DB4303F40033002B02D000F030
:1037400089F820E008211148FFF775FF0346002B98
:1037500009D10E4B5B68DB4303F40023002B02D03E
:1037600000F0B2F80FE020210848FFF764FF03469D
:10377000002B09D1054B5B68DB4303F40013002BDE
:1037800002D000F043F800BF00BF80BD000C00581D
:1037900080B500AF40BF20BFFFF7B0FE00BF80BDC7
:1037A00080B500AF4FF48010FFF7B8FE0648FFF772
:1037B000DEFE0548FFF7CBFE2C2000F031FC2D206B
:1037C00000F02EFC00BF80BD000C005880B500AF9B
:1037D00001210248FFF700FF00BF80BD000C005828
:1037E00080B500AF01210248FFF716FF00BF80BD82
:1037F000000C005880B500AF07F064F901210248C1
:10380000FFF7FCFE00BF80BD000C005880B500AF84
:1038100020210348FFF7CEFE07F070F900BF80BDFE
:10382000000C005880B500AF02210248FFF7D4FE1B
:1038300000BF80BD000C005880B500AF02210448D5
:10384000FFF7EAFE02210248FFF7A1FE00BF80BD9C
:10385000000C005880B500AF02210348FFF7AAFE14
:1038600007F094F900BF80BD000C005880B500AF90
:1038700007F09CF902210248FFF7C0FE00BF80BD9F
:10388000000C005880B582B000AF786008210C4869
:10389000FFF7D1FE0346002B07D00A4A7B6813606E
:1038A00008210748FFF773FE06E07B689847082168
:1038B0000348FFF7B1FE00BF0837BD4680BD00BF1B
:1038C000000C00586402002080B500AF08210648B3
:1038D000FFF770FE054B1B68984708210248FFF769
:1038E0009BFE00BF80BD00BF000C0058640200209A
:1038F00080B500AF08210248FFF76EFE00BF80BD13
:10390000000C005880B500AF07F0EEF9082102481E
:10391000FFF774FE00BF80BD000C005880B485B076
:1039200000AF78604FF0B043DA6C4FF0B0417B6885
:103930001343CB644FF0B043DA6C7B681340FB60F9
:10394000FB6800BF1437BD465DF8047B704700007C
:1039500080B588B000AF0346FB7107F10C0300226D
:103960001A605A609A60DA601A610220FFF7D6FF87
:10397000FB79124A32F81330FB6001233B610023CC
:103980007B610223BB61FB790D4A52F8233007F1BA
:103990000C021146184600F04DFEFB79084A52F819
:1039A0002300FB79054A32F813300022194600F053
:1039B000B1FF00BF2037BD4680BD00BF24C700084F
:1039C0000800002080B582B000AF0346FB71FB7990
:1039D000074A52F82300FB79064A32F813300122D5
:1039E000194600F097FF00BF0837BD4680BD00BFF5
:1039F0000800002024C7000880B582B000AF03464D
:103A0000FB71FB79074A52F82300FB79064A32F82A
:103A100013300022194600F07DFF00BF0837BD4675
:103A200080BD00BF0800002024C7000880B588B012
:103A300000AF03460A46FB711346BB7107F10C0346
:103A400000221A605A609A60DA601A61FB79002BD2
:103A500003D10420FFF762FF0CE0FB79012B03D1B7
:103A60000820FFF75BFF05E0FB79022B02D108205D
:103A7000FFF754FFBB79002B17D1FB79204A32F8AE
:103A80001330FB6000233B6101237B610223BB6198
:103A9000FB791C4A52F8233007F10C0211461846F4
:103AA00000F0C8FD0120FEF7B1F9BB79012B22D14E
:103AB000FB79134A32F81330FB6001237B61124B10
:103AC0003B61FB790F4A52F8233007F10C02114693
:103AD000184600F0AFFDFB790C4AD35C5BB20022C4
:103AE0000F21184600F082FAFB79084AD35C5BB2DA
:103AF000184600F095FA00BF2037BD4680BD00BFD4
:103B00002CC70008140000200000211034C7000852
:103B100080B400AF264B00229A60254BD3F8883042
:103B2000234A43F47003C2F888304FF0B0431B6857
:103B30004FF0B04243F0010313604FF0B0434FF435
:103B4000E0229A604FF0B0431A684FF0B041194B31
:103B500013400B604FF0B043D3F894304FF0B042B5
:103B600023F00503C2F894304FF0B043D3F89830F7
:103B70004FF0B04223F00103C2F898304FF0B04349
:103B80000D4ADA604FF0B0430B4A1A614FF0B04370
:103B90001B684FF0B04223F4802313604FF0B04312
:103BA00000229A6100BFBD465DF8047B704700BFEC
:103BB00000ED00E0FBFEF6FA0010042280B487B0AE
:103BC00000AF4FF0B0431B681B0903F00F03474AD7
:103BD00052F823303B614FF0B0439B6803F00C0375
:103BE0000C2B67D801A252F823F000BF213C00083B
:103BF000B53C0008B53C0008B53C0008293C00086D
:103C0000B53C0008B53C0008B53C0008313C000854
:103C1000B53C0008B53C0008B53C0008393C00083C
:103C2000334A3B69136049E0314B324A1A6045E040
:103C30002F4B314A1A6041E04FF0B043DB6803F08C
:103C40000303FB604FF0B043DB681B0903F007037D
:103C50000133BB60FB68022B05D1264ABB68B2FB6F
:103C6000F3F37B610DE0FB68032B05D1224ABB68AF
:103C7000B2FBF3F37B6104E03A69BB68B2FBF3F398
:103C80007B614FF0B043DB681B0A03F07F027B6966
:103C900002FB03F37B614FF0B043DB685B0F03F083
:103CA000070301337B607A697B68B2FBF3F3104A48
:103CB000136003E00E4A3B69136000BF4FF0B0434E
:103CC0009B681B0903F00F030C4A52F823303B603A
:103CD000074B1A683B68B2FBF3F3054A136000BF59
:103CE0001C37BD465DF8047B704700BF98C70008CD
:103CF000200000200024F4000048E80138C7000834
:103D000080B400AF054B5B68044A43F00103536085
:103D100000BFBD465DF8047B704700BF002004E093
:103D200080B582B000AF0023FB710C4B1B680B4ABF
:103D300043F480731360032000F04DF90020FEF778
:103D40005AF80346002B02D00123FB7101E0FEF775
:103D5000F9F8FB7918460837BD4680BD0040005889
:103D600080B400AF054B1A68054B1B681344034A27
:103D7000136000BFBD465DF8047B7047C01500208E
:103D80002800002080B400AF034B1B681846BD46D6
:103D90005DF8047B704700BFC015002080B400AF01
:103DA000034B1B681846BD465DF8047B704700BF97
:103DB0002400002080B500AFFFF7A2FF00BF80BD48
:103DC00080B485B000AF78607B6803F00703FB60C8
:103DD0000C4BDB68BB60BA684FF6FF031340BB6057
:103DE000FB681A02BB68134343F0BF6343F400331C
:103DF000BB60044ABB68D36000BF1437BD465DF8A2
:103E0000047B704700ED00E080B400AF044BDB683A
:103E10001B0A03F007031846BD465DF8047B704794
:103E200000ED00E080B483B000AF0346FB7197F96A
:103E30000730002B0BDBFB7903F01F02074997F9D2
:103E400007305B09012000FA02F241F8232000BF8D
:103E50000C37BD465DF8047B704700BF00E100E011
:103E600080B483B000AF0346FB7197F90730002B95
:103E700010DBFB7903F01F02094997F907305B0952
:103E8000012000FA02F2203341F82320BFF34F8FC4
:103E9000BFF36F8F00BF0C37BD465DF8047B7047E2
:103EA00000E100E080B483B000AF0346FB7197F9F6
:103EB0000730002B0CDBFB7903F01F02074997F951
:103EC00007305B09012000FA02F2403341F8232059
:103ED00000BF0C37BD465DF8047B704700E100E091
:103EE00080B483B000AF0346FB7197F90730002B15
:103EF0000CDBFB7903F01F02074997F907305B09D8
:103F0000012000FA02F2603341F8232000BF0C3791
:103F1000BD465DF8047B704700E100E080B483B0EB
:103F200000AF03463960FB7197F90730002B0ADBBD
:103F30003B68DAB20C4997F907301201D2B20B4450
:103F400083F800230AE03B68DAB20849FB7903F002
:103F50000F03043B1201D2B20B441A7600BF0C3798
:103F6000BD465DF8047B704700E100E000ED00E035
:103F700080B489B000AFF860B9607A60FB6803F084
:103F80000703FB61FB69C3F10703042B28BF04236C
:103F9000BB61FB690433062B02D9FB69033B00E0DC
:103FA00000237B614FF0FF32BB6902FA03F3DA436F
:103FB000BB681A407B699A404FF0FF317B6901FA78
:103FC00003F3D9437B680B40134318462437BD469F
:103FD0005DF8047B704780B582B000AF7860786888
:103FE000FFF7EEFE00BF0837BD4680BD80B586B046
:103FF00000AF0346B9607A60FB73FFF705FF786195
:104000007A68B9687869FFF7B3FF024697F90F300D
:1040100011461846FFF782FF00BF1837BD4680BD26
:1040200080B582B000AF0346FB7197F907301846A0
:10403000FFF7F8FE00BF0837BD4680BD80B582B0EF
:1040400000AF0346FB7197F907301846FFF708FFEA
:1040500000BF0837BD4680BD80B582B000AF0346C3
:10406000FB7197F907301846FFF71CFF00BF0837B0
:10407000BD4680BD80B582B000AF0346FB7197F9A5
:1040800007301846FFF72CFF00BF0837BD4680BD3C
:1040900080B584B000AF78607B68002B01D101232C
:1040A0008DE07B681B681A46474B9A420FD87B68A5
:1040B0001B681A46454B1344454AA2FB03231B09C0
:1040C0009A007B685A647B68424A1A640EE07B68F7
:1040D0001B681A46404B13443D4AA2FB03231B09AD
:1040E0009A007B685A647B683C4A1A647B680222A7
:1040F00083F825207B681B681B68FB60FB6823F442
:10410000FF4323F07003FB607B689A687B68DB6881
:104110001A437B681B691A437B685B691A437B6897
:104120009B691A437B68DB691A437B681B6A1343EC
:10413000FA681343FB607B681B68FA681A6078684A
:1041400000F016FA7B689B68B3F5804F02D17B685C
:1041500000225A607B685A687B689B6CD2B21A60F6
:104160007B68DB6C7A68126D5A607B685B68002B39
:1041700010D07B685B68042B0CD8786800F036FAA6
:104180007B685B6D00221A607B689B6D7A68D26DDC
:104190005A6008E07B6800225A657B6800229A65B5
:1041A0007B680022DA657B680022DA637B68012283
:1041B00083F825207B68002283F8242000231846FA
:1041C0001037BD4680BD00BF07040240F8FFFDBFA9
:1041D000CDCCCCCC00000240F8FBFDBF0004024077
:1041E00080B586B000AFF860B9607A603B600023AC
:1041F000FB75FB6893F82430012B01D1022366E0A4
:10420000FB68012283F82420FB6893F82530DBB299
:10421000012B55D1FB68022283F82520FB68002280
:10422000DA63FB681B681A68FB681B6822F00102EE
:104230001A603B687A68B968F86800F05AF9FB6858
:104240001B6B002B08D0FB681B681A68FB681B6897
:1042500042F00E021A600FE0FB681B681A68FB68E8
:104260001B6822F004021A60FB681B681A68FB686E
:104270001B6842F00A021A60FB689B6C1B6803F41F
:104280008033002B07D0FB689B6C1A68FB689B6C23
:1042900042F480721A60FB685B6D002B07D0FB68EC
:1042A0005B6D1A68FB685B6D42F480721A60FB6894
:1042B0001B681A68FB681B6842F001021A6005E07F
:1042C000FB68002283F824200223FB75FB7D18463F
:1042D0001837BD4680BD80B584B000AF786000233C
:1042E000FB737B6893F82530DBB2022B05D07B682B
:1042F0000422DA630123FB7347E07B681B681A68BA
:104300007B681B6822F00E021A607B681B681A68C3
:104310007B681B6822F001021A607B689B6C1A683C
:104320007B689B6C22F480721A607B685B6C03F084
:104330001C027B681B6C012101FA02F25A607B6847
:10434000DB6C7A68126D5A607B685B6D002B0CD059
:104350007B685B6D1A687B685B6D22F480721A6003
:104360007B689B6D7A68D26D5A607B68012283F806
:1043700025207B68002283F824207B689B6B002B20
:1043800003D07B689B6B78689847FB7B1846103797
:10439000BD4680BD80B584B000AF78607B681B6C83
:1043A0001B68FB607B681B681B68BB607B685B6C81
:1043B00003F01C0304229A40FB681340002B26D014
:1043C000BB6803F00403002B21D07B681B681B68CB
:1043D00003F02003002B07D17B681B681A687B68F9
:1043E0001B6822F004021A607B685B6C03F01C02FD
:1043F0007B681B6C042101FA02F25A607B681B6B1C
:10440000002B71D07B681B6B786898476CE07B68E9
:104410005B6C03F01C0302229A40FB681340002BE4
:104420002ED0BB6803F00203002B29D07B681B68E9
:104430001B6803F02003002B0BD17B681B681A68F4
:104440007B681B6822F00A021A607B68012283F8ED
:1044500025207B685B6C03F01C027B681B6C0221CF
:1044600001FA02F25A607B68002283F824207B68FC
:10447000DB6A002B38D07B68DB6A7868984733E0CA
:104480007B685B6C03F01C0308229A40FB681340B6
:10449000002B2AD0BB6803F00803002B25D07B68D3
:1044A0001B681A687B681B6822F00E021A607B6822
:1044B0005B6C03F01C027B681B6C012101FA02F2A9
:1044C0005A607B680122DA637B68012283F8252029
:1044D0007B68002283F824207B685B6B002B04D070
:1044E0007B685B6B7868984700BF00BF1037BD469C
:1044F00080BD80B485B000AFF860B9607A603B6081
:10450000FB68DB6CFA68126D5A60FB685B6D002B10
:1045100004D0FB689B6DFA68D26D5A60FB685B6CD7
:1045200003F01C02FB681B6C012101FA02F25A60C5
:10453000FB681B683A685A60FB689B68102B08D1BF
:10454000FB681B687A689A60FB681B68BA68DA6067
:1045500007E0FB681B68BA689A60FB681B687A68AA
:10456000DA6000BF1437BD465DF8047B7047000079
:1045700080B485B000AF78607B681B681A46174B23
:104580009A420AD87B685B6C9B089B0003F18043CE
:1045900003F502337A68936407E07B685B6C9B08E1
:1045A0009A000F4B13447A6893647B681B68DBB2F4
:1045B000083B0C4AA2FB03231B09FB607B680A4AE9
:1045C000DA64FB6803F01C0301229A407B681A65D9
:1045D00000BF1437BD465DF8047B704707040240F6
:1045E0001C080240CDCCCCCC8008024080B485B001
:1045F00000AF78607B685B68DBB2FB60FA680B4BEE
:1046000013449B001A467B685A657B68084A9A6582
:10461000FB68013B03F0030301229A407B68DA65E3
:1046200000BF1437BD465DF8047B70473F82001021
:104630004009024080B487B000AF78603960002341
:104640007B614CE13B681A6801217B6901FA03F345
:104650001340FB60FB68002B00F03E813B685B6809
:10466000022B03D03B685B68122B23D17B69DA08ED
:104670007B68083253F822303B617B6903F0070303
:104680009B000F2202FA03F3DB433A6913403B61BC
:104690003B681A697B6903F007039B0002FA03F386
:1046A0003A6913433B617B69DA087B6808323969F0
:1046B00043F822107B681B683B617B695B00032227
:1046C00002FA03F3DB433A6913403B613B685B68E2
:1046D00003F003027B695B0002FA03F33A691343B8
:1046E0003B617B683A691A603B685B68012B0BD0C1
:1046F0003B685B68022B07D03B685B68112B03D0DB
:104700003B685B68122B30D17B689B683B617B699F
:104710005B00032202FA03F3DB433A6913403B6177
:104720003B68DA687B695B0002FA03F33A6913437A
:104730003B617B683A699A607B685B683B610122F8
:104740007B6902FA03F3DB433A6913403B613B6840
:104750005B681B0903F001027B6902FA03F33A6903
:1047600013433B617B683A695A607B68DB683B6155
:104770007B695B00032202FA03F3DB433A691340CF
:104780003B613B689A687B695B0002FA03F33A6914
:1047900013433B617B683A69DA603B685B6803F00E
:1047A0008053002B00F09880544A7B699B080233A9
:1047B00052F823303B617B6903F003039B000F2217
:1047C00002FA03F3DB433A6913403B617B68B3F1C0
:1047D000904F19D07B684A4A934213D07B68494A6C
:1047E00093420DD07B68484A934207D07B68474A82
:1047F000934201D1042308E0072306E0032304E0E9
:10480000022302E0012300E000237A6902F00302A0
:10481000920093403A6913433B6138497B699B0896
:1048200002333A6941F82320394BD3F880303B6199
:10483000FB68DB433A6913403B613B685B6803F408
:104840008033002B03D03A69FB6813433B61304A45
:104850003B69C2F880302E4BD3F884303B61FB6853
:10486000DB433A6913403B613B685B6803F4003308
:10487000002B03D03A69FB6813433B61244A3B6930
:10488000C2F88430224B1B683B61FB68DB433A690A
:1048900013403B613B685B6803F48013002B03D03B
:1048A0003A69FB6813433B61194A3B691360184B33
:1048B0005B683B61FB68DB433A6913403B613B68E3
:1048C0005B6803F40013002B03D03A69FB681343C1
:1048D0003B610F4A3B6953607B6901337B613B68F5
:1048E0001A687B6922FA03F3002B7FF4ABAE00BF9A
:1048F0001C37BD465DF8047B704700BF00000140D7
:104900000004004800080048000C0048001000485F
:104910000008005880B483B000AF78600B467B80FD
:1049200013467B707B78002B03D07A887B689A6172
:1049300002E07A887B689A6200BF0C37BD465DF85A
:10494000047B704780B582B000AF0346FB80084B04
:10495000DA68FB881340002B06D0054AFB88D36039
:10496000FB881846FBF7AEFF00BF0837BD4680BD89
:104970000008005880B400AF054B1B68044A43F49C
:104980008073136000BFBD465DF8047B704700BFB5
:104990000004005880B400AF044B1B6803F4C063EC
:1049A0001846BD465DF8047B704700BF0004005800
:1049B00080B400AF4FF0B0431B6803F48013B3F52D
:1049C000801F01D1012300E000231846BD465DF899
:1049D000047B704780B400AF4FF0B0431B684FF0CA
:1049E000B04243F48023136000BFBD465DF8047BF2
:1049F000704780B400AF4FF0B0431B684FF0B04237
:104A000023F48023136000BFBD465DF8047B70472C
:104A100080B400AF4FF0B0431B684FF0B04243F496
:104A20008033136000BFBD465DF8047B704780B4DF
:104A300000AF4FF0B0431B684FF0B04223F4803317
:104A4000136000BFBD465DF8047B704780B400AFC3
:104A50004FF0B0431B6803F40033B3F5003F01D1BE
:104A6000012300E000231846BD465DF8047B704733
:104A700080B400AF4FF0B0431B684FF0B04243F436
:104A80008073136000BFBD465DF8047B704780B43F
:104A900000AF4FF0B0431B684FF0B04223F4807377
:104AA000136000BFBD465DF8047B704780B400AF63
:104AB0004FF0B0431B6803F48063B3F5806F01D1FE
:104AC000012300E000231846BD465DF8047B7047D3
:104AD00080B483B000AF78604FF0B0435B6823F0E0
:104AE000FE427B681B064FF0B04113434B6000BF92
:104AF0000C37BD465DF8047B704780B400AF4FF0C3
:104B0000B043D3F898304FF0B04243F00103C2F8FD
:104B1000983000BFBD465DF8047B704780B400AF9D
:104B20004FF0B043D3F898304FF0B04223F0010378
:104B3000C2F8983000BFBD465DF8047B704780B472
:104B400000AF4FF0B043D3F8983003F00203022BCC
:104B500001D1012300E000231846BD465DF8047B27
:104B6000704780B400AF4FF0B043D3F890304FF0AF
:104B7000B04243F00103C2F8903000BFBD465DF87B
:104B8000047B704780B400AF4FF0B043D3F890304F
:104B90004FF0B04223F00103C2F8903000BFBD4691
:104BA0005DF8047B704780B400AF4FF0B043D3F89A
:104BB00090304FF0B04243F00403C2F8903000BF91
:104BC000BD465DF8047B704780B400AF4FF0B04342
:104BD000D3F890304FF0B04223F00403C2F8903085
:104BE00000BFBD465DF8047B704780B400AF4FF056
:104BF000B043D3F8903003F00203022B01D101231C
:104C000000E000231846BD465DF8047B704780B481
:104C100000AF4FF0B043D3F894304FF0B04243F0C0
:104C20000103C2F8943000BFBD465DF8047B7047B5
:104C300080B400AF4FF0B043D3F894304FF0B0429F
:104C400023F00103C2F8943000BFBD465DF8047B39
:104C5000704780B400AF4FF0B043D3F8943003F006
:104C60000203022B01D1012300E000231846BD46B8
:104C70005DF8047B704780B400AF4FF0B043D3F8C9
:104C800094304FF0B04243F00403C2F8943000BFB8
:104C9000BD465DF8047B704780B400AF4FF0B04371
:104CA000D3F894304FF0B04223F00403C2F89430AC
:104CB00000BFBD465DF8047B704780B400AF4FF085
:104CC000B043D3F8943003F00803082B01D101233B
:104CD00000E000231846BD465DF8047B704780B4B1
:104CE00083B000AF78604FF0B043D3F8943023F432
:104CF00070627B681B024FF0B0411343C1F89430DF
:104D000000BF0C37BD465DF8047B704780B400AF30
:104D10004FF0B0431B684FF0B04243F00103136003
:104D200000BFBD465DF8047B704780B400AF4FF014
:104D3000B0431B684FF0B04223F00103136000BF83
:104D4000BD465DF8047B704780B400AF4FF0B043C0
:104D50001B6803F00203022B01D1012300E00023B2
:104D60001846BD465DF8047B704780B483B000AF41
:104D700078604FF0B0431B6823F0F0024FF0B04171
:104D80007B6813430B6000BF0C37BD465DF8047BA6
:104D9000704780B483B000AF4FF0B0431B6803F09E
:104DA000F0037B607B68B02B01D9B0237B607B680C
:104DB00018460C37BD465DF8047B704780B483B05D
:104DC00000AF78604FF0B0435B6823F47F427B68AC
:104DD0001B024FF0B04113434B6000BF0C37BD4680
:104DE0005DF8047B704780B483B000AF78604FF00B
:104DF000B0439B6823F003024FF0B0417B6813433C
:104E00008B6000BF0C37BD465DF8047B704780B4F3
:104E100000AF4FF0B0439B6803F00C031846BD464B
:104E20005DF8047B704780B483B000AF78604FF0CA
:104E3000B0439B6823F0F0024FF0B0417B6813430E
:104E40008B6000BF0C37BD465DF8047B704780B4B3
:104E500083B000AF78604FF0B043D3F8083123F04F
:104E6000F0024FF0B0417B681343C1F8083100BF36
:104E70000C37BD465DF8047B704780B483B000AF4B
:104E800078604FF0B043D3F8083123F00F027B680D
:104E90001B094FF0B0411343C1F8083100BF0C3774
:104EA000BD465DF8047B704780B483B000AF786086
:104EB0004FF0B0439B6823F4E0624FF0B0417B6851
:104EC00013438B6000BF0C37BD465DF8047B704711
:104ED00080B483B000AF78604FF0B0439B6823F498
:104EE00060524FF0B0417B6813438B6000BF0C37BA
:104EF000BD465DF8047B704780B400AF4FF0B0430F
:104F00009B6803F0F0031846BD465DF8047B7047CC
:104F100080B400AF4FF0B043D3F808311B0103F069
:104F2000F0031846BD465DF8047B704780B400AFBF
:104F30004FF0B0439B6803F4E0631846BD465DF84C
:104F4000047B704780B400AF4FF0B0439B6803F41C
:104F500060531846BD465DF8047B704780B400AFCF
:104F60004FF0B0431B684FF0B04243F080731360C2
:104F700000BFBD465DF8047B704780B400AF4FF0C2
:104F8000B0431B684FF0B04223F08073136000BF42
:104F9000BD465DF8047B704780B400AF4FF0B0436E
:104FA0001B6803F00073B3F1007F01D1012300E01F
:104FB00000231846BD465DF8047B704780B400AFFF
:104FC0004FF0B043DB681B0A03F07F031846BD4671
:104FD0005DF8047B704780B400AF4FF0B043DB68EE
:104FE00003F060431846BD465DF8047B704780B40B
:104FF00000AF4FF0B043DB6803F070031846BD46C6
:105000005DF8047B704780B400AF4FF0B043DB68BD
:1050100003F003031846BD465DF8047B704780B477
:1050200000AF4FF0B0439B6803F48033B3F5803F8B
:1050300001D1012300E000231846BD465DF8047B42
:10504000704780B400AF4FF0B043D3F8083103F499
:105050000033B3F5003F01D1012300E000231846DF
:10506000BD465DF8047B704780B400AF4FF0B0439D
:10507000D3F8083103F48033B3F5803F01D1012325
:1050800000E000231846BD465DF8047B704780B4FD
:1050900000AF4FF0B0439B6803F40033B3F5003F1B
:1050A00001D1012300E000231846BD465DF8047BD2
:1050B000704780B400AF4FF0B0439B6803F4802387
:1050C000B3F5802F01D1012300E000231846BD462F
:1050D0005DF8047B7047000090B58BB000AF78603E
:1050E0007B68002B01D101234BE37B681B6803F035
:1050F0002003002B00F08F80FFF789FE7862FFF716
:1051000082FF38627B6A002B05D07B6A0C2B49D169
:105110003B6A012B46D1FFF717FE0346002B05D053
:105120007B68DB69002B01D101232AE37B685C6A81
:10513000FFF72FFE03469C4214D97B685B6A184632
:1051400000F00EFD0346002B01D0012319E37B681C
:105150005B6A1846FFF709FE7B681B6A1846FFF773
:105160002DFE13E07B685B6A1846FFF7FEFD7B6847
:105170001B6A1846FFF722FE7B685B6A184600F040
:10518000EFFC0346002B01D00123FAE2FEF716FDE7
:10519000B44B1B681846FCF72EFE0346002B39D093
:1051A0000123EEE27B68DB69002B1ED0FFF7AEFD2A
:1051B000FEF7E8FDF86108E0FEF7E4FD0246FB6952
:1051C000D31A022B01D90323DBE2FFF7BDFD03460F
:1051D000002BF1D07B685B6A1846FFF7C6FD7B6841
:1051E0001B6A1846FFF7EAFD15E0FFF79EFDFEF784
:1051F000C9FDF86108E0FEF7C5FD0246FB69D31A58
:10520000022B01D90323BCE2FFF79EFD0346002BCE
:10521000F1D100E000BF7B681B6803F00103002BA5
:105220005AD0FFF7F4FDB861FFF7EDFE7861BB6976
:10523000082B05D0BB690C2B0DD17B69032B0AD140
:10524000FFF704FC0346002B45D07B685B68002B0E
:1052500041D1012395E27B685B68B3F5803F02D1C1
:10526000FFF7D6FB0DE07B685B68B3F5A02F04D198
:10527000FFF7B0FBFFF7CCFB03E0FFF7D8FBFFF72E
:10528000B8FB7B685B68002B12D0FEF77BFDF861F2
:1052900008E0FEF777FD0246FB69D31A642B01D9BB
:1052A00003236EE2FFF7D2FB0346002BF1D013E09D
:1052B000FEF768FDF86108E0FEF764FD0246FB6951
:1052C000D31A642B01D903235BE2FFF7BFFB03462C
:1052D000002BF1D100E000BF7B681B6803F00203E4
:1052E000002B51D0FFF793FD3861FFF78CFEF8607B
:1052F0003B69042B05D03B690C2B13D1FB68022BB7
:1053000010D1FFF7D3FB0346002B05D07B68DB6889
:10531000002B01D1012334E27B681B691846FFF79B
:10532000D7FB31E07B68DB68002B19D0FFF7A0FBCF
:10533000FEF728FDF86108E0FEF724FD0246FB6950
:10534000D31A022B01D903231BE2FFF7AFFB03465D
:10535000002BF1D07B681B691846FFF7B9FB13E0FF
:10536000FFF795FBFEF70EFDF86108E0FEF70AFD7A
:105370000246FB69D31A022B01D9032301E2FFF78E
:1053800095FB0346002BF1D17B681B6803F00803F3
:10539000002B06D17B681B6803F01003002B00F084
:1053A000A2807B685B69002B75D07B681B6803F06B
:1053B0001003002B46D0FFF74CFC0346002B13D103
:1053C000FFF725FCFEF7DEFCF86108E0FEF7DAFCEB
:1053D0000246FB69D31A022B01D90323D1E1FFF75F
:1053E00038FC0346002BF1D0FFF745FCFEF7CAFC62
:1053F000F86108E0FEF7C6FC0246FB69D31A032BEE
:1054000001D90323BDE1FFF758FC0346002BF1D07F
:105410007B689B691846FFF762FCFFF709FCFEF703
:10542000B1FCF86108E0FEF7ADFC0246FB69D31A57
:10543000022B01D90323A4E1FFF70BFC0346002B49
:10544000F1D150E0FFF7E3FBFEF79CFCF8610BE0C5
:10545000FEF798FC0246FB69D31A022B04D90323FA
:105460008FE100BF24000020FFF7F3FB0346002B71
:10547000EED0FFF711FC08E0FEF784FC0246FB6962
:10548000D31A032B01D903237BE1FFF716FC034654
:10549000002BF1D127E0FFF7FFFBFEF773FCF8616B
:1054A00008E0FEF76FFC0246FB69D31A032B01D913
:1054B000032366E1FFF701FC0346002BF1D1FFF760
:1054C000B7FBFEF75FFCF86108E0FEF75BFC024605
:1054D000FB69D31A022B01D9032352E1FFF7B9FB71
:1054E0000346002BF1D17B681B6803F00403002BFB
:1054F0005BD0A64B1B6803F48073002B14D1FFF71D
:1055000039FAFEF73FFCF86108E0FEF73BFC024683
:10551000FB69D31A022B01D9032332E19B4B1B6891
:1055200003F48073002BF0D07B689B68012B02D1C1
:10553000FFF717FB0CE07B689B68052B04D1FFF796
:1055400032FBFFF70EFB03E0FFF71CFBFFF73CFB12
:105550007B689B68002B14D0FEF714FCF8610AE00E
:10556000FEF710FC0246FB69D31A41F288329342DF
:1055700001D9032305E1FFF738FB0346002BEFD0E9
:1055800013E0FEF7FFFBF8610AE0FEF7FBFB0246C3
:10559000FB69D31A41F28832934201D90323F0E028
:1055A000FFF723FB0346002BEFD17B681B6803F05A
:1055B0004003002B2CD07B689B6A002B14D0FFF794
:1055C0009CFAFEF7DFFBF86108E0FEF7DBFB024622
:1055D000FB69D31A022B01D90323D2E0FFF7AFFAFC
:1055E0000346002BF1D013E0FFF798FAFEF7CAFB51
:1055F000F86108E0FEF7C6FB0246FB69D31A022BEE
:1056000001D90323BDE0FFF79AFA0346002BF1D13D
:105610007B68DB6A002B00F0B380FFF7F8FB0346E2
:105620000C2B76D07B68DB6A022B4BD1FFF7A5FCF5
:10563000FEF7A8FBF86108E0FEF7A4FB0246FB6951
:10564000D31A022B01D903239BE0FFF7A5FC0346E5
:10565000002BF1D14FF0B043DA684D4B13407A681C
:10566000116B7A68526B11437A68926B1202114384
:105670007A68D26B11437A68126C11437A68526C63
:105680000A434FF0B0411343CB60FFF767FC4FF084
:10569000B043DB684FF0B04243F08053D360FEF775
:1056A00071FBF86108E0FEF76DFB0246FB69D31A57
:1056B000022B01D9032364E0FFF76EFC0346002BA5
:1056C000F1D05DE0FFF759FC4FF0B043DB684FF0DD
:1056D000B04223F00303D3604FF0B043DB684FF0D8
:1056E000B04223F0885323F48033D360FEF74AFBA3
:1056F000F86108E0FEF746FB0246FB69D31A022B6D
:1057000001D903233DE0FFF747FC0346002BF1D10D
:1057100036E07B68DB6A012B01D1012331E04FF0D9
:10572000B043DB68BB60BB6803F003027B681B6BA4
:105730009A4223D1BB6803F070027B685B6B9A428C
:105740001CD1BB681B0A03F07F027B689B6B9A42EB
:1057500014D1BB6803F478127B68DB6B9A420DD1DD
:10576000BB6803F060627B681B6C9A4206D1BB6821
:1057700003F060427B685B6C9A4201D0012300E039
:10578000002318462C37BD4690BD00BF00040058CA
:105790008C80C11180B584B000AF786039607B68BF
:1057A000002B01D101232AE1974B1B6803F007036B
:1057B0003A689A421BD9944B1B6823F0070292491E
:1057C0003B6813430B60FEF7DDFAF86008E0FEF774
:1057D000D9FA0246FB68D31A022B01D903230EE142
:1057E000894B1B6803F007033A689A42EFD17B6844
:1057F0001B6803F00203002B16D07B689B681846D9
:10580000FFF711FBFEF7BEFAF86008E0FEF7BAFA00
:105810000246FB68D31A022B01D90323EFE0FFF7FE
:10582000FEFB0346002BF1D07B681B6803F02003CE
:10583000002B16D07B685B691846FFF708FBFEF764
:10584000A1FAF86008E0FEF79DFA0246FB68D31A59
:10585000022B01D90323D2E0FFF7F3FB0346002B11
:10586000F1D07B681B6803F04003002B16D07B68E7
:105870009B691846FFF701FBFEF784FAF86008E021
:10588000FEF780FA0246FB68D31A022B01D90323E4
:10589000B5E0FFF7E9FB0346002BF1D07B681B68FE
:1058A00003F00403002B16D07B68DB681846FFF773
:1058B000FBFAFEF767FAF86008E0FEF763FA0246C3
:1058C000FB68D31A022B01D9032398E0FFF7DFFB13
:1058D0000346002BF1D07B681B6803F00803002B04
:1058E00017D07B681B69DB001846FFF7F1FAFEF75B
:1058F00049FAF86008E0FEF745FA0246FB68D31A59
:10590000022B01D903237AE0FFF7D3FB0346002BD8
:10591000F1D07B681B6803F00103002B43D07B6848
:105920005B68022B06D1FFF791F80346002B1ED1CE
:10593000012364E07B685B68032B06D1FFF72CFB37
:105940000346002B13D1012359E07B685B68002BD1
:1059500006D1FFF7F9F90346002B08D101234EE0E9
:10596000FFF7A4F80346002B01D1012347E07B6831
:105970005B681846FFF737FAFEF704FAF8600AE0AA
:10598000FEF700FA0246FB68D31A41F288329342CE
:1059900001D9032333E0FFF73AFA02467B685B68DC
:1059A0009B009A42ECD1184B1B6803F007033A683E
:1059B0009A421BD2144B1B6823F0070212493B6822
:1059C00013430B60FEF7DEF9F86008E0FEF7DAF942
:1059D0000246FB68D31A022B01D903230FE00A4BBE
:1059E0001B6803F007033A689A42EFD1FEF7E6F826
:1059F000FEF7D4F903461846FCF7FDF903461846AE
:105A00001037BD4680BD00BF0040005890B585B03E
:105A100000AFFFF7FCF978607B68002B0AD1FFF735
:105A2000B8F903461B0903F00F032A4A52F8233042
:105A3000FB604AE07B68042B02D1274BFB6044E00B
:105A40007B68082B0AD1FEF7B3FF0346012B02D176
:105A5000214BFB6039E0214BFB6036E0FFF7D3FAC6
:105A600038603B68022B02D0032B03D00DE01A4BA9
:105A7000BB6015E0FEF79CFF0346012B02D1164BDD
:105A8000BB600DE0154BBB600AE0FFF782F90346EF
:105A90001B0903F00F030F4A52F82330BB6000BF0D
:105AA000FFF78CFA0246BB6803FB02F4FFF79FFA8C
:105AB00003461B090133B4FBF3F4FFF78CFA0346EA
:105AC0005B0F0133B4FBF3F3FB60FB68184614373C
:105AD000BD4690BD98C700080024F4000048E801C6
